{
  "contractName": "FakeExchange",
  "abi": [
    {
      "inputs": [
        {
          "internalType": "contract AggregatorInterface",
          "name": "pp",
          "type": "address"
        },
        {
          "internalType": "contract FakeUSD",
          "name": "t",
          "type": "address"
        }
      ],
      "stateMutability": "nonpayable",
      "type": "constructor"
    },
    {
      "inputs": [],
      "name": "WOETH",
      "outputs": [
        {
          "internalType": "address",
          "name": "",
          "type": "address"
        }
      ],
      "stateMutability": "view",
      "type": "function",
      "constant": true
    },
    {
      "inputs": [],
      "name": "spread",
      "outputs": [
        {
          "internalType": "uint256",
          "name": "",
          "type": "uint256"
        }
      ],
      "stateMutability": "view",
      "type": "function",
      "constant": true
    },
    {
      "stateMutability": "payable",
      "type": "receive",
      "payable": true
    },
    {
      "inputs": [
        {
          "internalType": "uint256",
          "name": "amountOutMin",
          "type": "uint256"
        },
        {
          "internalType": "address[]",
          "name": "path",
          "type": "address[]"
        },
        {
          "internalType": "address",
          "name": "to",
          "type": "address"
        },
        {
          "internalType": "uint256",
          "name": "",
          "type": "uint256"
        }
      ],
      "name": "swapExactETHForTokens",
      "outputs": [
        {
          "internalType": "uint256[]",
          "name": "amounts",
          "type": "uint256[]"
        }
      ],
      "stateMutability": "payable",
      "type": "function",
      "payable": true
    },
    {
      "inputs": [
        {
          "internalType": "uint256",
          "name": "tokens_sold",
          "type": "uint256"
        }
      ],
      "name": "getTokenToOETHInputPrice",
      "outputs": [
        {
          "internalType": "uint256",
          "name": "OETH_bought",
          "type": "uint256"
        }
      ],
      "stateMutability": "view",
      "type": "function",
      "constant": true
    },
    {
      "inputs": [
        {
          "internalType": "uint256",
          "name": "OETH_sold",
          "type": "uint256"
        }
      ],
      "name": "getOETHToTokenInputPrice",
      "outputs": [
        {
          "internalType": "uint256",
          "name": "tokens_bought",
          "type": "uint256"
        }
      ],
      "stateMutability": "view",
      "type": "function",
      "constant": true
    },
    {
      "inputs": [],
      "name": "withdrow",
      "outputs": [],
      "stateMutability": "nonpayable",
      "type": "function"
    }
  ],
  "bytecode": "0x60806040526063600155600280546001600160a01b0319163017905534801561002757600080fd5b506040516106033803806106038339818101604052604081101561004a57600080fd5b508051602090910151600080546001600160a01b039384166001600160a01b03199182161790915560038054939092169216919091179055610572806100916000396000f3fe6080604052600436106100595760003560e01c806320c5d98714610065578063288b80b4146100a15780633b874521146100cb5780635c25c76c146100e25780637ff36ab5146100f75780638dd95002146101cd57610060565b3661006057005b600080fd5b34801561007157600080fd5b5061008f6004803603602081101561008857600080fd5b50356101fe565b60408051918252519081900360200190f35b3480156100ad57600080fd5b5061008f600480360360208110156100c457600080fd5b5035610291565b3480156100d757600080fd5b506100e0610326565b005b3480156100ee57600080fd5b5061008f610355565b61017d6004803603608081101561010d57600080fd5b8135919081019060408101602082013564010000000081111561012f57600080fd5b82018360208201111561014157600080fd5b8035906020019184602083028401116401000000008311171561016357600080fd5b91935091506001600160a01b03813516906020013561035b565b60408051602080825283518183015283519192839290830191858101910280838360005b838110156101b95781810151838201526020016101a1565b505050509050019250505060405180910390f35b3480156101d957600080fd5b506101e261052d565b604080516001600160a01b039092168252519081900360200190f35b60006001546000809054906101000a90046001600160a01b03166001600160a01b03166350d25bcd6040518163ffffffff1660e01b815260040160206040518083038186803b15801561025057600080fd5b505afa158015610264573d6000803e3d6000fd5b505050506040513d602081101561027a57600080fd5b5051620f424084028161028957fe5b040292915050565b60006402540be4006001546000809054906101000a90046001600160a01b03166001600160a01b03166350d25bcd6040518163ffffffff1660e01b815260040160206040518083038186803b1580156102e957600080fd5b505afa1580156102fd573d6000803e3d6000fd5b505050506040513d602081101561031357600080fd5b50518402028161031f57fe5b0492915050565b60405133904780156108fc02916000818181858888f19350505050158015610352573d6000803e3d6000fd5b50565b60015481565b6002546060906001600160a01b0316858560008161037557fe5b905060200201356001600160a01b03166001600160a01b0316146103e0576040805162461bcd60e51b815260206004820152601d60248201527f556e69737761705632526f757465723a20494e56414c49445f50415448000000604482015290519081900360640190fd5b60006103eb34610291565b905086811015610437576040805162461bcd60e51b81526020600482015260126024820152710a6e0e4cac2c840d2e640e8dede40d0d2ced60731b604482015290519081900360640190fd5b600354604080516308934a5f60e31b81526001600160a01b038781166004830152602482018590529151919092169163449a52f891604480830192600092919082900301818387803b15801561048c57600080fd5b505af11580156104a0573d6000803e3d6000fd5b508792505067ffffffffffffffff8211905080156104bd57600080fd5b506040519080825280602002602001820160405280156104e7578160200160208202803683370190505b50915034826000815181106104f857fe5b6020026020010181815250508082600188889050038151811061051757fe5b6020026020010181815250505095945050505050565b6002546001600160a01b03168156fea264697066735822122061d3036fadab52944cb3daff1e1be4ec1de571bbedbe0c077c5cde279a0a5c6564736f6c63430006080033",
  "immutableReferences": {},
  "source": "/**\n * SPDX-License-Identifier: GPL-3.0-or-later\n * Hegic\n * Copyright (C) 2020 Hegic\n *\n * This program is free software: you can redistribute it and/or modify\n * it under the terms of the GNU General Public License as published by\n * the Free Software Foundation, either version 3 of the License, or\n * (at your option) any later version.\n *\n * This program is distributed in the hope that it will be useful,\n * but WITHOUT ANY WARRANTY; without even the implied warranty of\n * MERCHANTABILITY or FITNESS FOR A PARTICULAR PURPOSE.  See the\n * GNU General Public License for more details.\n *\n * You should have received a copy of the GNU General Public License\n * along with this program.  If not, see <http://www.gnu.org/licenses/>.\n */\n\npragma solidity ^0.6.8;\nimport \"../contracts/Interfaces.sol\";\n\n\ncontract FakeExchange {\n    AggregatorInterface price;\n\n    uint256 public spread = 99;\n    address public WOETH = address(this);\n\n    constructor(AggregatorInterface pp, FakeUSD t) public {\n        price = pp;\n        token = t;\n    }\n\n    receive() external payable {}\n\n    FakeUSD token;\n\n    function swapExactETHForTokens(\n        uint256 amountOutMin,\n        address[] calldata path,\n        address to,\n        uint256\n    ) external payable returns (uint256[] memory amounts) {\n        require(path[0] == WOETH, \"UniswapV2Router: INVALID_PATH\");\n        uint256 amount = getOETHToTokenInputPrice(msg.value);\n        require(amount >= amountOutMin, \"Spread is too high\");\n        token.mintTo(to, amount);\n        amounts = new uint256[](path.length);\n        amounts[0] = msg.value;\n        amounts[path.length - 1] = amount;\n    }\n\n    function getTokenToOETHInputPrice(uint256 tokens_sold)\n        public\n        view\n        returns (uint256 OETH_bought)\n    {\n        OETH_bought =\n            ((tokens_sold * 1e6) / uint256(price.latestAnswer())) *\n            spread;\n    }\n\n    function getOETHToTokenInputPrice(uint256 OETH_sold)\n        public\n        view\n        returns (uint256 tokens_bought)\n    {\n        tokens_bought =\n            (OETH_sold * uint256(price.latestAnswer()) * spread) /\n            1e10;\n    }\n\n    function withdrow() public {\n        msg.sender.transfer(address(this).balance);\n    }\n}\n\n\ncontract FakePriceProvider {\n    uint256 public price;\n\n    constructor(uint256 p) public {\n        price = p;\n    }\n\n    function latestAnswer() external view returns (uint256) {\n        return price;\n    }\n\n    function setPrice(uint256 _price) public {\n        price = _price;\n    }\n}\n\n\ncontract FakeUSD is ERC20(\"FakeUSD\", \"FAKE\") {\n    function mintTo(address account, uint256 amount) public {\n        _mint(account, amount);\n    }\n\n    function mint(uint256 amount) public {\n        _mint(msg.sender, amount);\n    }\n}\n",
  "sourcePath": "contracts/TestContracts.sol",
  "compiler": {
    "name": "solc",
    "version": "0.6.8+commit.0bbfe453.Emscripten.clang"
  },
  "schemaVersion": "3.2.2",
  "updatedAt": "2021-02-18T17:22:32.035Z",
  "networkType": "ethereum",
  "devdoc": {
    "methods": {}
  },
  "userdoc": {
    "methods": {}
  }
}