{
  "contractName": "HiveOETHPool",
  "abi": [
    {
      "anonymous": false,
      "inputs": [
        {
          "indexed": true,
          "internalType": "address",
          "name": "owner",
          "type": "address"
        },
        {
          "indexed": true,
          "internalType": "address",
          "name": "spender",
          "type": "address"
        },
        {
          "indexed": false,
          "internalType": "uint256",
          "name": "value",
          "type": "uint256"
        }
      ],
      "name": "Approval",
      "type": "event"
    },
    {
      "anonymous": false,
      "inputs": [
        {
          "indexed": true,
          "internalType": "address",
          "name": "previousOwner",
          "type": "address"
        },
        {
          "indexed": true,
          "internalType": "address",
          "name": "newOwner",
          "type": "address"
        }
      ],
      "name": "OwnershipTransferred",
      "type": "event"
    },
    {
      "anonymous": false,
      "inputs": [
        {
          "indexed": true,
          "internalType": "address",
          "name": "account",
          "type": "address"
        },
        {
          "indexed": false,
          "internalType": "uint256",
          "name": "amount",
          "type": "uint256"
        },
        {
          "indexed": false,
          "internalType": "uint256",
          "name": "writeAmount",
          "type": "uint256"
        }
      ],
      "name": "Provide",
      "type": "event"
    },
    {
      "anonymous": false,
      "inputs": [
        {
          "indexed": true,
          "internalType": "address",
          "name": "from",
          "type": "address"
        },
        {
          "indexed": true,
          "internalType": "address",
          "name": "to",
          "type": "address"
        },
        {
          "indexed": false,
          "internalType": "uint256",
          "name": "value",
          "type": "uint256"
        }
      ],
      "name": "Transfer",
      "type": "event"
    },
    {
      "anonymous": false,
      "inputs": [
        {
          "indexed": true,
          "internalType": "address",
          "name": "account",
          "type": "address"
        },
        {
          "indexed": false,
          "internalType": "uint256",
          "name": "amount",
          "type": "uint256"
        },
        {
          "indexed": false,
          "internalType": "uint256",
          "name": "writeAmount",
          "type": "uint256"
        }
      ],
      "name": "Withdraw",
      "type": "event"
    },
    {
      "inputs": [
        {
          "internalType": "address",
          "name": "owner",
          "type": "address"
        },
        {
          "internalType": "address",
          "name": "spender",
          "type": "address"
        }
      ],
      "name": "allowance",
      "outputs": [
        {
          "internalType": "uint256",
          "name": "",
          "type": "uint256"
        }
      ],
      "stateMutability": "view",
      "type": "function"
    },
    {
      "inputs": [
        {
          "internalType": "address",
          "name": "spender",
          "type": "address"
        },
        {
          "internalType": "uint256",
          "name": "amount",
          "type": "uint256"
        }
      ],
      "name": "approve",
      "outputs": [
        {
          "internalType": "bool",
          "name": "",
          "type": "bool"
        }
      ],
      "stateMutability": "nonpayable",
      "type": "function"
    },
    {
      "inputs": [
        {
          "internalType": "address",
          "name": "account",
          "type": "address"
        }
      ],
      "name": "balanceOf",
      "outputs": [
        {
          "internalType": "uint256",
          "name": "",
          "type": "uint256"
        }
      ],
      "stateMutability": "view",
      "type": "function"
    },
    {
      "inputs": [],
      "name": "decimals",
      "outputs": [
        {
          "internalType": "uint8",
          "name": "",
          "type": "uint8"
        }
      ],
      "stateMutability": "view",
      "type": "function"
    },
    {
      "inputs": [
        {
          "internalType": "address",
          "name": "spender",
          "type": "address"
        },
        {
          "internalType": "uint256",
          "name": "subtractedValue",
          "type": "uint256"
        }
      ],
      "name": "decreaseAllowance",
      "outputs": [
        {
          "internalType": "bool",
          "name": "",
          "type": "bool"
        }
      ],
      "stateMutability": "nonpayable",
      "type": "function"
    },
    {
      "inputs": [
        {
          "internalType": "address",
          "name": "spender",
          "type": "address"
        },
        {
          "internalType": "uint256",
          "name": "addedValue",
          "type": "uint256"
        }
      ],
      "name": "increaseAllowance",
      "outputs": [
        {
          "internalType": "bool",
          "name": "",
          "type": "bool"
        }
      ],
      "stateMutability": "nonpayable",
      "type": "function"
    },
    {
      "inputs": [],
      "name": "lockedAmount",
      "outputs": [
        {
          "internalType": "uint256",
          "name": "",
          "type": "uint256"
        }
      ],
      "stateMutability": "view",
      "type": "function"
    },
    {
      "inputs": [],
      "name": "lockedPremium",
      "outputs": [
        {
          "internalType": "uint256",
          "name": "",
          "type": "uint256"
        }
      ],
      "stateMutability": "view",
      "type": "function"
    },
    {
      "inputs": [],
      "name": "lockupPeriod",
      "outputs": [
        {
          "internalType": "uint256",
          "name": "",
          "type": "uint256"
        }
      ],
      "stateMutability": "view",
      "type": "function"
    },
    {
      "inputs": [],
      "name": "name",
      "outputs": [
        {
          "internalType": "string",
          "name": "",
          "type": "string"
        }
      ],
      "stateMutability": "view",
      "type": "function"
    },
    {
      "inputs": [],
      "name": "owner",
      "outputs": [
        {
          "internalType": "address",
          "name": "",
          "type": "address"
        }
      ],
      "stateMutability": "view",
      "type": "function"
    },
    {
      "inputs": [],
      "name": "renounceOwnership",
      "outputs": [],
      "stateMutability": "nonpayable",
      "type": "function"
    },
    {
      "inputs": [],
      "name": "symbol",
      "outputs": [
        {
          "internalType": "string",
          "name": "",
          "type": "string"
        }
      ],
      "stateMutability": "view",
      "type": "function"
    },
    {
      "inputs": [],
      "name": "totalSupply",
      "outputs": [
        {
          "internalType": "uint256",
          "name": "",
          "type": "uint256"
        }
      ],
      "stateMutability": "view",
      "type": "function"
    },
    {
      "inputs": [
        {
          "internalType": "address",
          "name": "recipient",
          "type": "address"
        },
        {
          "internalType": "uint256",
          "name": "amount",
          "type": "uint256"
        }
      ],
      "name": "transfer",
      "outputs": [
        {
          "internalType": "bool",
          "name": "",
          "type": "bool"
        }
      ],
      "stateMutability": "nonpayable",
      "type": "function"
    },
    {
      "inputs": [
        {
          "internalType": "address",
          "name": "sender",
          "type": "address"
        },
        {
          "internalType": "address",
          "name": "recipient",
          "type": "address"
        },
        {
          "internalType": "uint256",
          "name": "amount",
          "type": "uint256"
        }
      ],
      "name": "transferFrom",
      "outputs": [
        {
          "internalType": "bool",
          "name": "",
          "type": "bool"
        }
      ],
      "stateMutability": "nonpayable",
      "type": "function"
    },
    {
      "inputs": [
        {
          "internalType": "address",
          "name": "newOwner",
          "type": "address"
        }
      ],
      "name": "transferOwnership",
      "outputs": [],
      "stateMutability": "nonpayable",
      "type": "function"
    },
    {
      "stateMutability": "payable",
      "type": "receive"
    },
    {
      "inputs": [
        {
          "internalType": "uint256",
          "name": "value",
          "type": "uint256"
        }
      ],
      "name": "setLockupPeriod",
      "outputs": [],
      "stateMutability": "nonpayable",
      "type": "function"
    },
    {
      "inputs": [
        {
          "internalType": "uint256",
          "name": "minMint",
          "type": "uint256"
        }
      ],
      "name": "provide",
      "outputs": [
        {
          "internalType": "uint256",
          "name": "mint",
          "type": "uint256"
        }
      ],
      "stateMutability": "payable",
      "type": "function"
    },
    {
      "inputs": [
        {
          "internalType": "uint256",
          "name": "amount",
          "type": "uint256"
        },
        {
          "internalType": "uint256",
          "name": "maxBurn",
          "type": "uint256"
        }
      ],
      "name": "withdraw",
      "outputs": [
        {
          "internalType": "uint256",
          "name": "burn",
          "type": "uint256"
        }
      ],
      "stateMutability": "nonpayable",
      "type": "function"
    },
    {
      "inputs": [
        {
          "internalType": "uint256",
          "name": "amount",
          "type": "uint256"
        }
      ],
      "name": "lock",
      "outputs": [],
      "stateMutability": "nonpayable",
      "type": "function"
    },
    {
      "inputs": [
        {
          "internalType": "uint256",
          "name": "amount",
          "type": "uint256"
        }
      ],
      "name": "unlock",
      "outputs": [],
      "stateMutability": "nonpayable",
      "type": "function"
    },
    {
      "inputs": [],
      "name": "sendPremium",
      "outputs": [],
      "stateMutability": "payable",
      "type": "function"
    },
    {
      "inputs": [
        {
          "internalType": "uint256",
          "name": "amount",
          "type": "uint256"
        }
      ],
      "name": "unlockPremium",
      "outputs": [],
      "stateMutability": "nonpayable",
      "type": "function"
    },
    {
      "inputs": [
        {
          "internalType": "address payable",
          "name": "to",
          "type": "address"
        },
        {
          "internalType": "uint256",
          "name": "amount",
          "type": "uint256"
        }
      ],
      "name": "send",
      "outputs": [],
      "stateMutability": "nonpayable",
      "type": "function"
    },
    {
      "inputs": [
        {
          "internalType": "address",
          "name": "account",
          "type": "address"
        }
      ],
      "name": "shareOf",
      "outputs": [
        {
          "internalType": "uint256",
          "name": "share",
          "type": "uint256"
        }
      ],
      "stateMutability": "view",
      "type": "function"
    },
    {
      "inputs": [],
      "name": "availableBalance",
      "outputs": [
        {
          "internalType": "uint256",
          "name": "balance",
          "type": "uint256"
        }
      ],
      "stateMutability": "view",
      "type": "function"
    },
    {
      "inputs": [],
      "name": "totalBalance",
      "outputs": [
        {
          "internalType": "uint256",
          "name": "balance",
          "type": "uint256"
        }
      ],
      "stateMutability": "view",
      "type": "function"
    }
  ],
  "bytecode": "0x6080604052621275006007553480156200001857600080fd5b50604051806040016040528060128152602001712434bb329027a2aa24102628102a37b5b2b760711b815250604051806040016040528060098152602001680eee4d2e8ca9e8aa8960bb1b8152506000620000786200010360201b60201c565b600080546001600160a01b0319166001600160a01b0383169081178255604051929350917f8be0079c531659141344cd1fd0a4f28419497f9722a3daafe3b4186f6b6457e0908290a3508151620000d790600490602085019062000108565b508051620000ed90600590602084019062000108565b50506006805460ff1916601217905550620001aa565b335b90565b828054600181600116156101000203166002900490600052602060002090601f016020900481019282601f106200014b57805160ff19168380011785556200017b565b828001600101855582156200017b579182015b828111156200017b5782518255916020019190600101906200015e565b50620001899291506200018d565b5090565b6200010591905b8082111562000189576000815560010162000194565b611e2680620001ba6000396000f3fe6080604052600436106101bb5760003560e01c80638052882a116100ec578063ad7a672f1161008a578063dd46706411610064578063dd46706414610601578063dd62ed3e1461062b578063ee947a7c14610666578063f2fde38b1461067b576101c2565b8063ad7a672f14610589578063c771c3901461059e578063d0679d34146105c8576101c2565b80639ac1f394116100c65780639ac1f394146104fa578063a457c2d714610502578063a9059cbb1461053b578063ab2f0e5114610574576101c2565b80638052882a1461048a5780638da5cb5b146104b457806395d89b41146104e5576101c2565b806339509351116101595780636ab28bc8116101335780636ab28bc81461041857806370a082311461042d578063715018a614610460578063797be55e14610475576101c2565b80633950935114610383578063441a3e70146103bc5780636198e339146103ec576101c2565b806321e5e2c41161019557806321e5e2c4146102c557806323b872dd146102f85780632e2ebe061461033b578063313ce56714610358576101c2565b806306fdde03146101c7578063095ea7b31461025157806318160ddd1461029e576101c2565b366101c257005b600080fd5b3480156101d357600080fd5b506101dc6106ae565b6040805160208082528351818301528351919283929083019185019080838360005b838110156102165781810151838201526020016101fe565b50505050905090810190601f1680156102435780820380516001836020036101000a031916815260200191505b509250505060405180910390f35b34801561025d57600080fd5b5061028a6004803603604081101561027457600080fd5b506001600160a01b038135169060200135610744565b604080519115158252519081900360200190f35b3480156102aa57600080fd5b506102b3610762565b60408051918252519081900360200190f35b3480156102d157600080fd5b506102b3600480360360208110156102e857600080fd5b50356001600160a01b0316610768565b34801561030457600080fd5b5061028a6004803603606081101561031b57600080fd5b506001600160a01b038135811691602081013590911690604001356107c0565b6102b36004803603602081101561035157600080fd5b503561084d565b34801561036457600080fd5b5061036d6109bb565b6040805160ff9092168252519081900360200190f35b34801561038f57600080fd5b5061028a600480360360408110156103a657600080fd5b506001600160a01b0381351690602001356109c4565b3480156103c857600080fd5b506102b3600480360360408110156103df57600080fd5b5080359060200135610a18565b3480156103f857600080fd5b506104166004803603602081101561040f57600080fd5b5035610c77565b005b34801561042457600080fd5b506102b3610d33565b34801561043957600080fd5b506102b36004803603602081101561045057600080fd5b50356001600160a01b0316610d39565b34801561046c57600080fd5b50610416610d54565b34801561048157600080fd5b506102b3610e00565b34801561049657600080fd5b50610416600480360360208110156104ad57600080fd5b5035610e06565b3480156104c057600080fd5b506104c9610ec2565b604080516001600160a01b039092168252519081900360200190f35b3480156104f157600080fd5b506101dc610ed1565b610416610f32565b34801561050e57600080fd5b5061028a6004803603604081101561052557600080fd5b506001600160a01b038135169060200135610fac565b34801561054757600080fd5b5061028a6004803603604081101561055e57600080fd5b506001600160a01b03813516906020013561101a565b34801561058057600080fd5b506102b361102e565b34801561059557600080fd5b506102b361104f565b3480156105aa57600080fd5b50610416600480360360208110156105c157600080fd5b5035611066565b3480156105d457600080fd5b50610416600480360360408110156105eb57600080fd5b506001600160a01b038135169060200135611125565b34801561060d57600080fd5b506104166004803603602081101561062457600080fd5b5035611216565b34801561063757600080fd5b506102b36004803603604081101561064e57600080fd5b506001600160a01b03813581169160200135166112ee565b34801561067257600080fd5b506102b3611319565b34801561068757600080fd5b506104166004803603602081101561069e57600080fd5b50356001600160a01b031661131f565b60048054604080516020601f600260001961010060018816150201909516949094049384018190048102820181019092528281526060939092909183018282801561073a5780601f1061070f5761010080835404028352916020019161073a565b820191906000526020600020905b81548152906001019060200180831161071d57829003601f168201915b5050505050905090565b6000610758610751611421565b8484611425565b5060015b92915050565b60035490565b600080610773610762565b11156107b7576107b0610784610762565b6107a461079085610d39565b61079861104f565b9063ffffffff61151116565b9063ffffffff61157116565b90506107bb565b5060005b919050565b60006107cd8484846115d8565b610843846107d9611421565b61083e85604051806060016040528060288152602001611d1a602891396001600160a01b038a16600090815260026020526040812090610817611421565b6001600160a01b03168152602081019190915260400160002054919063ffffffff61174116565b611425565b5060019392505050565b336000908152600a6020526040812042905580610868610762565b9050600061087461104f565b90506000821180156108865750600081115b156108b5576108ae61089e823463ffffffff6117d816565b6107a4348563ffffffff61151116565b92506108ca565b6108c7346103e863ffffffff61151116565b92505b8383101561091f576040805162461bcd60e51b815260206004820152601d60248201527f506f6f6c3a204d696e74206c696d697420697320746f6f206c61726765000000604482015290519081900360640190fd5b60008311610970576040805162461bcd60e51b8152602060048201526019602482015278141bdbdb0e88105b5bdd5b9d081a5cc81d1bdbc81cdb585b1b603a1b604482015290519081900360640190fd5b61097a3384611835565b6040805134815260208101859052815133927f4089141ea5e4c16575f5ebf65f1786497ea07c175846fc7745ef8d8986a4ff65928290030190a25050919050565b60065460ff1690565b60006107586109d1611421565b8461083e85600260006109e2611421565b6001600160a01b03908116825260208083019390935260409182016000908120918c16815292529020549063ffffffff61193316565b600754336000908152600a602052604081205490914291610a3e9163ffffffff61193316565b1115610a91576040805162461bcd60e51b815260206004820152601d60248201527f506f6f6c3a205769746864726177616c206973206c6f636b6564207570000000604482015290519081900360640190fd5b610a9961102e565b831115610ad75760405162461bcd60e51b815260040180806020018281038252604b815260200180611b3a604b913960600191505060405180910390fd5b610afa610ae261104f565b6107a4610aed610762565b869063ffffffff61151116565b905081811115610b51576040805162461bcd60e51b815260206004820152601d60248201527f506f6f6c3a204275726e206c696d697420697320746f6f20736d616c6c000000604482015290519081900360640190fd5b610b5a33610d39565b811115610bae576040805162461bcd60e51b815260206004820152601960248201527f506f6f6c3a20416d6f756e7420697320746f6f206c6172676500000000000000604482015290519081900360640190fd5b60008111610bff576040805162461bcd60e51b8152602060048201526019602482015278141bdbdb0e88105b5bdd5b9d081a5cc81d1bdbc81cdb585b1b603a1b604482015290519081900360640190fd5b610c09338261198d565b6040805184815260208101839052815133927ff279e6a1f5e320cca91135676d9cb6e44ca8a08c0b88342bcdb1144f6511b568928290030190a2604051339084156108fc029085906000818181858888f19350505050158015610c70573d6000803e3d6000fd5b5092915050565b610c7f611421565b6001600160a01b0316610c90610ec2565b6001600160a01b031614610cd9576040805162461bcd60e51b81526020600482018190526024820152600080516020611d42833981519152604482015290519081900360640190fd5b806008541015610d1a5760405162461bcd60e51b8152600401808060200182810382526071815260200180611ca96071913960800191505060405180910390fd5b600854610d2d908263ffffffff6117d816565b60085550565b60085481565b6001600160a01b031660009081526001602052604090205490565b610d5c611421565b6001600160a01b0316610d6d610ec2565b6001600160a01b031614610db6576040805162461bcd60e51b81526020600482018190526024820152600080516020611d42833981519152604482015290519081900360640190fd5b600080546040516001600160a01b03909116907f8be0079c531659141344cd1fd0a4f28419497f9722a3daafe3b4186f6b6457e0908390a3600080546001600160a01b0319169055565b60095481565b610e0e611421565b6001600160a01b0316610e1f610ec2565b6001600160a01b031614610e68576040805162461bcd60e51b81526020600482018190526024820152600080516020611d42833981519152604482015290519081900360640190fd5b806009541015610ea95760405162461bcd60e51b8152600401808060200182810382526073815260200180611bef6073913960800191505060405180910390fd5b600954610ebc908263ffffffff6117d816565b60095550565b6000546001600160a01b031690565b60058054604080516020601f600260001961010060018816150201909516949094049384018190048102820181019092528281526060939092909183018282801561073a5780601f1061070f5761010080835404028352916020019161073a565b610f3a611421565b6001600160a01b0316610f4b610ec2565b6001600160a01b031614610f94576040805162461bcd60e51b81526020600482018190526024820152600080516020611d42833981519152604482015290519081900360640190fd5b600954610fa7903463ffffffff61193316565b600955565b6000610758610fb9611421565b8461083e85604051806060016040528060258152602001611dcc6025913960026000610fe3611421565b6001600160a01b03908116825260208083019390935260409182016000908120918d1681529252902054919063ffffffff61174116565b6000610758611027611421565b84846115d8565b600061104a60085461103e61104f565b9063ffffffff6117d816565b905090565b600061104a600954476117d890919063ffffffff16565b61106e611421565b6001600160a01b031661107f610ec2565b6001600160a01b0316146110c8576040805162461bcd60e51b81526020600482018190526024820152600080516020611d42833981519152604482015290519081900360640190fd5b624f1a00811115611120576040805162461bcd60e51b815260206004820152601a60248201527f4c6f636b757020706572696f6420697320746f6f206c61726765000000000000604482015290519081900360640190fd5b600755565b61112d611421565b6001600160a01b031661113e610ec2565b6001600160a01b031614611187576040805162461bcd60e51b81526020600482018190526024820152600080516020611d42833981519152604482015290519081900360640190fd5b6001600160a01b03821661119a57600080fd5b8060085410156111db5760405162461bcd60e51b8152600401808060200182810382526073815260200180611bef6073913960800191505060405180910390fd5b6040516001600160a01b0383169082156108fc029083906000818181858888f19350505050158015611211573d6000803e3d6000fd5b505050565b61121e611421565b6001600160a01b031661122f610ec2565b6001600160a01b031614611278576040805162461bcd60e51b81526020600482018190526024820152600080516020611d42833981519152604482015290519081900360640190fd5b600861129f61128561104f565b6107a4600a6107988660085461193390919063ffffffff16565b106112db5760405162461bcd60e51b8152600401808060200182810382526071815260200180611ca96071913960800191505060405180910390fd5b600854610d2d908263ffffffff61193316565b6001600160a01b03918216600090815260026020908152604080832093909416825291909152205490565b60075481565b611327611421565b6001600160a01b0316611338610ec2565b6001600160a01b031614611381576040805162461bcd60e51b81526020600482018190526024820152600080516020611d42833981519152604482015290519081900360640190fd5b6001600160a01b0381166113c65760405162461bcd60e51b8152600401808060200182810382526026815260200180611ba76026913960400191505060405180910390fd5b600080546040516001600160a01b03808516939216917f8be0079c531659141344cd1fd0a4f28419497f9722a3daafe3b4186f6b6457e091a3600080546001600160a01b0319166001600160a01b0392909216919091179055565b3390565b6001600160a01b03831661146a5760405162461bcd60e51b8152600401808060200182810382526024815260200180611da86024913960400191505060405180910390fd5b6001600160a01b0382166114af5760405162461bcd60e51b8152600401808060200182810382526022815260200180611bcd6022913960400191505060405180910390fd5b6001600160a01b03808416600081815260026020908152604080832094871680845294825291829020859055815185815291517f8c5be1e5ebec7d5bd14f71427d1e84f3dd0314c0f7b2291e5b200ac8c7c3b9259281900390910190a3505050565b6000826115205750600061075c565b8282028284828161152d57fe5b041461156a5760405162461bcd60e51b8152600401808060200182810382526021815260200180611c886021913960400191505060405180910390fd5b9392505050565b60008082116115c7576040805162461bcd60e51b815260206004820152601a60248201527f536166654d6174683a206469766973696f6e206279207a65726f000000000000604482015290519081900360640190fd5b8183816115d057fe5b049392505050565b6001600160a01b03831661161d5760405162461bcd60e51b8152600401808060200182810382526025815260200180611d836025913960400191505060405180910390fd5b6001600160a01b0382166116625760405162461bcd60e51b8152600401808060200182810382526023815260200180611b176023913960400191505060405180910390fd5b61166d838383611a95565b6116b081604051806060016040528060268152602001611c62602691396001600160a01b038616600090815260016020526040902054919063ffffffff61174116565b6001600160a01b0380851660009081526001602052604080822093909355908416815220546116e5908263ffffffff61193316565b6001600160a01b0380841660008181526001602090815260409182902094909455805185815290519193928716927fddf252ad1be2c89b69c2b068fc378daa952ba7f163c4a11628f55a4df523b3ef92918290030190a3505050565b600081848411156117d05760405162461bcd60e51b81526004018080602001828103825283818151815260200191508051906020019080838360005b8381101561179557818101518382015260200161177d565b50505050905090810190601f1680156117c25780820380516001836020036101000a031916815260200191505b509250505060405180910390fd5b505050900390565b60008282111561182f576040805162461bcd60e51b815260206004820152601e60248201527f536166654d6174683a207375627472616374696f6e206f766572666c6f770000604482015290519081900360640190fd5b50900390565b6001600160a01b038216611890576040805162461bcd60e51b815260206004820152601f60248201527f45524332303a206d696e7420746f20746865207a65726f206164647265737300604482015290519081900360640190fd5b61189c60008383611a95565b6003546118af908263ffffffff61193316565b6003556001600160a01b0382166000908152600160205260409020546118db908263ffffffff61193316565b6001600160a01b03831660008181526001602090815260408083209490945583518581529351929391927fddf252ad1be2c89b69c2b068fc378daa952ba7f163c4a11628f55a4df523b3ef9281900390910190a35050565b60008282018381101561156a576040805162461bcd60e51b815260206004820152601b60248201527f536166654d6174683a206164646974696f6e206f766572666c6f770000000000604482015290519081900360640190fd5b6001600160a01b0382166119d25760405162461bcd60e51b8152600401808060200182810382526021815260200180611d626021913960400191505060405180910390fd5b6119de82600083611a95565b611a2181604051806060016040528060228152602001611b85602291396001600160a01b038516600090815260016020526040902054919063ffffffff61174116565b6001600160a01b038316600090815260016020526040902055600354611a4d908263ffffffff6117d816565b6003556040805182815290516000916001600160a01b038516917fddf252ad1be2c89b69c2b068fc378daa952ba7f163c4a11628f55a4df523b3ef9181900360200190a35050565b6007546001600160a01b0384166000908152600a60205260409020544291611ac3919063ffffffff61193316565b1115611211576040805162461bcd60e51b815260206004820152601d60248201527f506f6f6c3a205769746864726177616c206973206c6f636b6564207570000000604482015290519081900360640190fdfe45524332303a207472616e7366657220746f20746865207a65726f2061646472657373506f6f6c204572726f723a204e6f7420656e6f7567682066756e6473206f6e2074686520706f6f6c20636f6e74726163742e20506c65617365206c6f7765722074686520616d6f756e742e45524332303a206275726e20616d6f756e7420657863656564732062616c616e63654f776e61626c653a206e6577206f776e657220697320746865207a65726f206164647265737345524332303a20617070726f766520746f20746865207a65726f2061646472657373506f6f6c204572726f723a20596f752061726520747279696e6720746f20756e6c6f636b206d6f7265207072656d69756d73207468616e2068617665206265656e206c6f636b656420666f722074686520636f6e74726163742e20506c65617365206c6f7765722074686520616d6f756e742e45524332303a207472616e7366657220616d6f756e7420657863656564732062616c616e6365536166654d6174683a206d756c7469706c69636174696f6e206f766572666c6f77506f6f6c204572726f723a20596f752061726520747279696e6720746f20756e6c6f636b206d6f72652066756e6473207468616e2068617665206265656e206c6f636b656420666f7220796f757220636f6e74726163742e20506c65617365206c6f7765722074686520616d6f756e742e45524332303a207472616e7366657220616d6f756e74206578636565647320616c6c6f77616e63654f776e61626c653a2063616c6c6572206973206e6f7420746865206f776e657245524332303a206275726e2066726f6d20746865207a65726f206164647265737345524332303a207472616e736665722066726f6d20746865207a65726f206164647265737345524332303a20617070726f76652066726f6d20746865207a65726f206164647265737345524332303a2064656372656173656420616c6c6f77616e63652062656c6f77207a65726fa26469706673582212203d8c2b0a15cbdfdde34160a81a9227f1c55aedee37cb692503708089be5e186264736f6c63430006080033",
  "immutableReferences": {},
  "source": "/**\n * SPDX-License-Identifier: GPL-3.0-or-later\n * Hegic\n * Copyright (C) 2020 Hegic Protocol\n *\n * This program is free software: you can redistribute it and/or modify\n * it under the terms of the GNU General Public License as published by\n * the Free Software Foundation, either version 3 of the License, or\n * (at your option) any later version.\n *\n * This program is distributed in the hope that it will be useful,\n * but WITHOUT ANY WARRANTY; without even the implied warranty of\n * MERCHANTABILITY or FITNESS FOR A PARTICULAR PURPOSE.  See the\n * GNU General Public License for more details.\n *\n * You should have received a copy of the GNU General Public License\n * along with this program.  If not, see <http://www.gnu.org/licenses/>.\n */\n\npragma solidity 0.6.8;\n\nimport \"./Interfaces.sol\";\n\n\n/**\n * @author 0mllwntrmt3\n * @title Hive OETH Liquidity Pool\n * @notice Accumulates liquidity in OETH from LPs and distributes P&L in OETH\n */\ncontract HiveOETHPool is\n    IOETHLiquidityPool,\n    Ownable,\n    ERC20(\"Hive OETH LP Token\", \"writeOETH\")\n{\n    using SafeMath for uint256;\n    uint256 public lockupPeriod = 2 weeks;\n    uint256 public lockedAmount;\n    uint256 public lockedPremium;\n    mapping(address => uint256) private lastProvideTimestamp;\n\n    /*\n     * @nonce Sends premiums to the liquidity pool\n     **/\n    receive() external payable {}\n\n    /**\n     * @notice Used for changing the lockup period\n     * @param value New period value\n     */\n    function setLockupPeriod(uint256 value) external override onlyOwner {\n        require(value <= 60 days, \"Lockup period is too large\");\n        lockupPeriod = value;\n    }\n\n    /*\n     * @nonce A provider supplies OETH to the pool and receives writeOETH tokens\n     * @param minMint Minimum amount of tokens that should be received by a provider.\n                      Calling the provide function will require the minimum amount of tokens to be minted.\n                      The actual amount that will be minted could vary but can only be higher (not lower) than the minimum value.\n     * @return mint Amount of tokens to be received\n     */\n    function provide(uint256 minMint) external payable returns (uint256 mint) {\n        lastProvideTimestamp[msg.sender] = now;\n        uint supply = totalSupply();\n        uint balance = totalBalance();\n        if (supply > 0 && balance > 0)\n            mint = msg.value.mul(supply).div(balance.sub(msg.value));\n        else\n            mint = msg.value.mul(1000);\n\n        require(mint >= minMint, \"Pool: Mint limit is too large\");\n        require(mint > 0, \"Pool: Amount is too small\");\n\n        _mint(msg.sender, mint);\n        emit Provide(msg.sender, msg.value, mint);\n    }\n\n    /*\n     * @nonce Provider burns writeOETH and receives OETH from the pool\n     * @param amount Amount of OETH to receive\n     * @return burn Amount of tokens to be burnt\n     */\n    function withdraw(uint256 amount, uint256 maxBurn) external returns (uint256 burn) {\n        require(\n            lastProvideTimestamp[msg.sender].add(lockupPeriod) <= now,\n            \"Pool: Withdrawal is locked up\"\n        );\n        require(\n            amount <= availableBalance(),\n            \"Pool Error: Not enough funds on the pool contract. Please lower the amount.\"\n        );\n        burn = amount.mul(totalSupply()).div(totalBalance());\n\n        require(burn <= maxBurn, \"Pool: Burn limit is too small\");\n        require(burn <= balanceOf(msg.sender), \"Pool: Amount is too large\");\n        require(burn > 0, \"Pool: Amount is too small\");\n\n        _burn(msg.sender, burn);\n        emit Withdraw(msg.sender, amount, burn);\n        msg.sender.transfer(amount);\n    }\n\n    /*\n     * @nonce calls by HiveCallOptions to lock the funds\n     * @param amount Amount of funds that should be locked in an option\n     */\n    function lock(uint256 amount) external override onlyOwner {\n        require(\n            lockedAmount.add(amount).mul(10).div(totalBalance()) < 8,\n            \"Pool Error: You are trying to unlock more funds than have been locked for your contract. Please lower the amount.\"\n        );\n        lockedAmount = lockedAmount.add(amount);\n    }\n\n    /*\n     * @nonce calls by HiveCallOptions to unlock the funds\n     * @param amount Amount of funds that should be unlocked in an expired option\n     */\n    function unlock(uint256 amount) external override onlyOwner {\n        require(lockedAmount >= amount, \"Pool Error: You are trying to unlock more funds than have been locked for your contract. Please lower the amount.\");\n        lockedAmount = lockedAmount.sub(amount);\n    }\n\n    /*\n     * @nonce calls by HivePutOptions to lock the premiums\n     * @param amount Amount of premiums that should be locked\n     */\n    function sendPremium() external override payable onlyOwner {\n        lockedPremium = lockedPremium.add(msg.value);\n    }\n\n    /*\n     * @nonce calls by HivePutOptions to unlock the premiums after an option's expiraton\n     * @param amount Amount of premiums that should be unlocked\n     */\n    function unlockPremium(uint256 amount) external override onlyOwner {\n        require(lockedPremium >= amount, \"Pool Error: You are trying to unlock more premiums than have been locked for the contract. Please lower the amount.\");\n        lockedPremium = lockedPremium.sub(amount);\n    }\n\n    /*\n     * @nonce calls by HiveCallOptions to send funds to liquidity providers after an option's expiration\n     * @param to Provider\n     * @param amount Funds that should be sent\n     */\n    function send(address payable to, uint256 amount)\n        external\n        override\n        onlyOwner\n    {\n        require(to != address(0));\n        require(lockedAmount >= amount, \"Pool Error: You are trying to unlock more premiums than have been locked for the contract. Please lower the amount.\");\n        to.transfer(amount);\n    }\n\n    /*\n     * @nonce Returns provider's share in OETH\n     * @param account Provider's address\n     * @return Provider's share in OETH\n     */\n    function shareOf(address account) external view returns (uint256 share) {\n        if (totalSupply() > 0)\n            share = totalBalance().mul(balanceOf(account)).div(totalSupply());\n        else\n            share = 0;\n    }\n\n    /*\n     * @nonce Returns the amount of OETH available for withdrawals\n     * @return balance Unlocked amount\n     */\n    function availableBalance() public view returns (uint256 balance) {\n        return totalBalance().sub(lockedAmount);\n    }\n\n    /*\n     * @nonce Returns the total balance of OETH provided to the pool\n     * @return balance Pool balance\n     */\n    function totalBalance() public override view returns (uint256 balance) {\n        return address(this).balance.sub(lockedPremium);\n    }\n\n    function _beforeTokenTransfer(address from, address, uint256) internal override {\n        require(\n            lastProvideTimestamp[from].add(lockupPeriod) <= now,\n            \"Pool: Withdrawal is locked up\"\n        );\n    }\n}\n",
  "sourcePath": "contracts/HiveOETHPool.sol",
  "compiler": {
    "name": "solc",
    "version": "0.6.8+commit.0bbfe453.Emscripten.clang"
  },
  "schemaVersion": "3.3.4",
  "updatedAt": "2021-04-16T01:01:58.942Z",
  "devdoc": {
    "author": "0mllwntrmt3",
    "methods": {
      "allowance(address,address)": {
        "details": "See {IERC20-allowance}."
      },
      "approve(address,uint256)": {
        "details": "See {IERC20-approve}.     * Requirements:     * - `spender` cannot be the zero address."
      },
      "balanceOf(address)": {
        "details": "See {IERC20-balanceOf}."
      },
      "decimals()": {
        "details": "Returns the number of decimals used to get its user representation. For example, if `decimals` equals `2`, a balance of `505` tokens should be displayed to a user as `5,05` (`505 / 10 ** 2`).     * Tokens usually opt for a value of 18, imitating the relationship between Ether and Wei. This is the value {ERC20} uses, unless {_setupDecimals} is called.     * NOTE: This information is only used for _display_ purposes: it in no way affects any of the arithmetic of the contract, including {IERC20-balanceOf} and {IERC20-transfer}."
      },
      "decreaseAllowance(address,uint256)": {
        "details": "Atomically decreases the allowance granted to `spender` by the caller.     * This is an alternative to {approve} that can be used as a mitigation for problems described in {IERC20-approve}.     * Emits an {Approval} event indicating the updated allowance.     * Requirements:     * - `spender` cannot be the zero address. - `spender` must have allowance for the caller of at least `subtractedValue`."
      },
      "increaseAllowance(address,uint256)": {
        "details": "Atomically increases the allowance granted to `spender` by the caller.     * This is an alternative to {approve} that can be used as a mitigation for problems described in {IERC20-approve}.     * Emits an {Approval} event indicating the updated allowance.     * Requirements:     * - `spender` cannot be the zero address."
      },
      "name()": {
        "details": "Returns the name of the token."
      },
      "owner()": {
        "details": "Returns the address of the current owner."
      },
      "renounceOwnership()": {
        "details": "Leaves the contract without owner. It will not be possible to call `onlyOwner` functions anymore. Can only be called by the current owner.     * NOTE: Renouncing ownership will leave the contract without an owner, thereby removing any functionality that is only available to the owner."
      },
      "setLockupPeriod(uint256)": {
        "params": {
          "value": "New period value"
        }
      },
      "symbol()": {
        "details": "Returns the symbol of the token, usually a shorter version of the name."
      },
      "totalSupply()": {
        "details": "See {IERC20-totalSupply}."
      },
      "transfer(address,uint256)": {
        "details": "See {IERC20-transfer}.     * Requirements:     * - `recipient` cannot be the zero address. - the caller must have a balance of at least `amount`."
      },
      "transferFrom(address,address,uint256)": {
        "details": "See {IERC20-transferFrom}.     * Emits an {Approval} event indicating the updated allowance. This is not required by the EIP. See the note at the beginning of {ERC20}.     * Requirements:     * - `sender` and `recipient` cannot be the zero address. - `sender` must have a balance of at least `amount`. - the caller must have allowance for ``sender``'s tokens of at least `amount`."
      },
      "transferOwnership(address)": {
        "details": "Transfers ownership of the contract to a new account (`newOwner`). Can only be called by the current owner."
      }
    },
    "title": "Hive OETH Liquidity Pool"
  },
  "userdoc": {
    "methods": {
      "setLockupPeriod(uint256)": {
        "notice": "Used for changing the lockup period"
      }
    },
    "notice": "Accumulates liquidity in OETH from LPs and distributes P&L in OETH"
  }
}