{
  "contractName": "HivePutOptions",
  "abi": [
    {
      "inputs": [
        {
          "internalType": "contract IERC20",
          "name": "_token",
          "type": "address"
        },
        {
          "internalType": "contract AggregatorInterface",
          "name": "_priceProvider",
          "type": "address"
        },
        {
          "internalType": "contract IUniswapV2Router01",
          "name": "_uniswapRouter",
          "type": "address"
        }
      ],
      "stateMutability": "nonpayable",
      "type": "constructor"
    },
    {
      "anonymous": false,
      "inputs": [
        {
          "indexed": true,
          "internalType": "uint256",
          "name": "id",
          "type": "uint256"
        },
        {
          "indexed": true,
          "internalType": "address",
          "name": "account",
          "type": "address"
        },
        {
          "indexed": false,
          "internalType": "uint256",
          "name": "settlementFee",
          "type": "uint256"
        },
        {
          "indexed": false,
          "internalType": "uint256",
          "name": "totalFee",
          "type": "uint256"
        }
      ],
      "name": "Create",
      "type": "event"
    },
    {
      "anonymous": false,
      "inputs": [
        {
          "indexed": true,
          "internalType": "uint256",
          "name": "id",
          "type": "uint256"
        },
        {
          "indexed": false,
          "internalType": "uint256",
          "name": "profit",
          "type": "uint256"
        }
      ],
      "name": "Exercise",
      "type": "event"
    },
    {
      "anonymous": false,
      "inputs": [
        {
          "indexed": true,
          "internalType": "uint256",
          "name": "id",
          "type": "uint256"
        },
        {
          "indexed": false,
          "internalType": "uint256",
          "name": "premium",
          "type": "uint256"
        }
      ],
      "name": "Expire",
      "type": "event"
    },
    {
      "anonymous": false,
      "inputs": [
        {
          "indexed": true,
          "internalType": "address",
          "name": "previousOwner",
          "type": "address"
        },
        {
          "indexed": true,
          "internalType": "address",
          "name": "newOwner",
          "type": "address"
        }
      ],
      "name": "OwnershipTransferred",
      "type": "event"
    },
    {
      "inputs": [
        {
          "internalType": "uint256",
          "name": "period",
          "type": "uint256"
        },
        {
          "internalType": "uint256",
          "name": "amount",
          "type": "uint256"
        },
        {
          "internalType": "uint256",
          "name": "strike",
          "type": "uint256"
        }
      ],
      "name": "create",
      "outputs": [
        {
          "internalType": "uint256",
          "name": "optionID",
          "type": "uint256"
        }
      ],
      "stateMutability": "payable",
      "type": "function"
    },
    {
      "inputs": [
        {
          "internalType": "uint256",
          "name": "optionID",
          "type": "uint256"
        }
      ],
      "name": "exercise",
      "outputs": [],
      "stateMutability": "nonpayable",
      "type": "function"
    },
    {
      "inputs": [
        {
          "internalType": "uint256",
          "name": "period",
          "type": "uint256"
        },
        {
          "internalType": "uint256",
          "name": "amount",
          "type": "uint256"
        },
        {
          "internalType": "uint256",
          "name": "strike",
          "type": "uint256"
        }
      ],
      "name": "fees",
      "outputs": [
        {
          "internalType": "uint256",
          "name": "total",
          "type": "uint256"
        },
        {
          "internalType": "uint256",
          "name": "settlementFee",
          "type": "uint256"
        },
        {
          "internalType": "uint256",
          "name": "strikeFee",
          "type": "uint256"
        },
        {
          "internalType": "uint256",
          "name": "periodFee",
          "type": "uint256"
        }
      ],
      "stateMutability": "view",
      "type": "function"
    },
    {
      "inputs": [],
      "name": "impliedVolRate",
      "outputs": [
        {
          "internalType": "uint256",
          "name": "",
          "type": "uint256"
        }
      ],
      "stateMutability": "view",
      "type": "function"
    },
    {
      "inputs": [],
      "name": "maxSpread",
      "outputs": [
        {
          "internalType": "uint256",
          "name": "",
          "type": "uint256"
        }
      ],
      "stateMutability": "view",
      "type": "function"
    },
    {
      "inputs": [
        {
          "internalType": "uint256",
          "name": "",
          "type": "uint256"
        }
      ],
      "name": "options",
      "outputs": [
        {
          "internalType": "enum HiveOptions.State",
          "name": "state",
          "type": "uint8"
        },
        {
          "internalType": "address payable",
          "name": "holder",
          "type": "address"
        },
        {
          "internalType": "uint256",
          "name": "strike",
          "type": "uint256"
        },
        {
          "internalType": "uint256",
          "name": "amount",
          "type": "uint256"
        },
        {
          "internalType": "uint256",
          "name": "premium",
          "type": "uint256"
        },
        {
          "internalType": "uint256",
          "name": "expiration",
          "type": "uint256"
        }
      ],
      "stateMutability": "view",
      "type": "function"
    },
    {
      "inputs": [],
      "name": "owner",
      "outputs": [
        {
          "internalType": "address",
          "name": "",
          "type": "address"
        }
      ],
      "stateMutability": "view",
      "type": "function"
    },
    {
      "inputs": [],
      "name": "pool",
      "outputs": [
        {
          "internalType": "contract HiveERCPool",
          "name": "",
          "type": "address"
        }
      ],
      "stateMutability": "view",
      "type": "function"
    },
    {
      "inputs": [],
      "name": "priceProvider",
      "outputs": [
        {
          "internalType": "contract AggregatorInterface",
          "name": "",
          "type": "address"
        }
      ],
      "stateMutability": "view",
      "type": "function"
    },
    {
      "inputs": [],
      "name": "renounceOwnership",
      "outputs": [],
      "stateMutability": "nonpayable",
      "type": "function"
    },
    {
      "inputs": [
        {
          "internalType": "uint256",
          "name": "value",
          "type": "uint256"
        }
      ],
      "name": "setImpliedVolRate",
      "outputs": [],
      "stateMutability": "nonpayable",
      "type": "function"
    },
    {
      "inputs": [
        {
          "internalType": "address payable",
          "name": "recipient",
          "type": "address"
        }
      ],
      "name": "setSettlementFeeRecipient",
      "outputs": [],
      "stateMutability": "nonpayable",
      "type": "function"
    },
    {
      "inputs": [],
      "name": "settlementFeeRecipient",
      "outputs": [
        {
          "internalType": "address payable",
          "name": "",
          "type": "address"
        }
      ],
      "stateMutability": "view",
      "type": "function"
    },
    {
      "inputs": [
        {
          "internalType": "address",
          "name": "newOwner",
          "type": "address"
        }
      ],
      "name": "transferOwnership",
      "outputs": [],
      "stateMutability": "nonpayable",
      "type": "function"
    },
    {
      "inputs": [],
      "name": "uniswapRouter",
      "outputs": [
        {
          "internalType": "contract IUniswapV2Router01",
          "name": "",
          "type": "address"
        }
      ],
      "stateMutability": "view",
      "type": "function"
    },
    {
      "inputs": [
        {
          "internalType": "uint256",
          "name": "optionID",
          "type": "uint256"
        }
      ],
      "name": "unlock",
      "outputs": [],
      "stateMutability": "nonpayable",
      "type": "function"
    },
    {
      "inputs": [
        {
          "internalType": "uint256[]",
          "name": "optionIDs",
          "type": "uint256[]"
        }
      ],
      "name": "unlockAll",
      "outputs": [],
      "stateMutability": "nonpayable",
      "type": "function"
    },
    {
      "inputs": [],
      "name": "transferPoolOwnership",
      "outputs": [],
      "stateMutability": "nonpayable",
      "type": "function"
    },
    {
      "inputs": [
        {
          "internalType": "uint256",
          "name": "value",
          "type": "uint256"
        }
      ],
      "name": "setMaxSpread",
      "outputs": [],
      "stateMutability": "nonpayable",
      "type": "function"
    },
    {
      "inputs": [
        {
          "internalType": "uint256",
          "name": "value",
          "type": "uint256"
        }
      ],
      "name": "setLockupPeriod",
      "outputs": [],
      "stateMutability": "nonpayable",
      "type": "function"
    },
    {
      "inputs": [],
      "name": "approve",
      "outputs": [],
      "stateMutability": "nonpayable",
      "type": "function"
    }
  ],
  "bytecode": "0x6080604052605f6008553480156200001657600080fd5b506040516200433438038062004334833981810160405260608110156200003c57600080fd5b508051602082015160409092015190919081600080620000646001600160e01b03620001b816565b600080546001600160a01b0319166001600160a01b0383169081178255604051929350917f8be0079c531659141344cd1fd0a4f28419497f9722a3daafe3b4186f6b6457e0908290a350600480546001600160a01b0319166001600160a01b0384161780825582919060ff60a01b1916600160a01b836001811115620000e657fe5b0217905550620000fe6001600160e01b03620001bc16565b600180546001600160a01b03199081166001600160a01b039384161790915561157c600255426003556009805482168884161790819055600680549092168684161790915560405191169250620001569150620002a8565b6001600160a01b03909116815260405190819003602001906000f08015801562000184573d6000803e3d6000fd5b50600780546001600160a01b0319166001600160a01b0392909216919091179055620001af620001cb565b505050620002b6565b3390565b6000546001600160a01b031690565b6009546007546040805163095ea7b360e01b81526001600160a01b03928316600482015260001960248201529051919092169163095ea7b39160448083019260209291908290030181600087803b1580156200022657600080fd5b505af11580156200023b573d6000803e3d6000fd5b505050506040513d60208110156200025257600080fd5b5051620002a6576040805162461bcd60e51b815260206004820152601460248201527f746f6b656e20617070726f7665206661696c6564000000000000000000000000604482015290519081900360640190fd5b565b61226a80620020ca83390190565b611e0480620002c66000396000f3fe60806040526004361061012a5760003560e01c80638da5cb5b116100ab578063c771c3901161006f578063c771c39014610359578063c97fe94b14610383578063ceaeeba9146103ac578063e342b598146103d6578063f2fde38b14610453578063f53e2894146104865761012a565b80638da5cb5b146102a857806396350a85146102bd578063b07f0a41146102f0578063b888879e1461031a578063bef648db1461032f5761012a565b8063410fa5d9116100f2578063410fa5d91461022a5780636198e3391461023f578063715018a614610269578063735de9f71461027e578063796e8f90146102935761012a565b806312424e3f1461012f57806316f0115b14610146578063181731dc1461017757806318f88e5b1461018c578063409e2205146101b3575b600080fd5b34801561013b57600080fd5b506101446104e2565b005b34801561015257600080fd5b5061015b6105b2565b604080516001600160a01b039092168252519081900360200190f35b34801561018357600080fd5b5061015b6105c1565b34801561019857600080fd5b506101a16105d0565b60408051918252519081900360200190f35b3480156101bf57600080fd5b506101dd600480360360208110156101d657600080fd5b50356105d6565b604051808760028111156101ed57fe5b60ff1681526001600160a01b039096166020870152506040808601949094526060850192909252608084015260a0830152519081900360c0019150f35b34801561023657600080fd5b50610144610628565b34801561024b57600080fd5b506101446004803603602081101561026257600080fd5b5035610718565b34801561027557600080fd5b506101446108a9565b34801561028a57600080fd5b5061015b610955565b34801561029f57600080fd5b506101a1610964565b3480156102b457600080fd5b5061015b61096a565b3480156102c957600080fd5b50610144600480360360208110156102e057600080fd5b50356001600160a01b0316610979565b3480156102fc57600080fd5b506101446004803603602081101561031357600080fd5b5035610a10565b34801561032657600080fd5b5061015b610be3565b34801561033b57600080fd5b506101446004803603602081101561035257600080fd5b5035610bf2565b34801561036557600080fd5b506101446004803603602081101561037c57600080fd5b5035610caf565b6101a16004803603606081101561039957600080fd5b5080359060208101359060400135610dd1565b3480156103b857600080fd5b50610144600480360360208110156103cf57600080fd5b5035611188565b3480156103e257600080fd5b50610144600480360360208110156103f957600080fd5b81019060208101813564010000000081111561041457600080fd5b82018360208201111561042657600080fd5b8035906020019184602083028401116401000000008311171561044857600080fd5b509092509050611230565b34801561045f57600080fd5b506101446004803603602081101561047657600080fd5b50356001600160a01b031661125f565b34801561049257600080fd5b506104bc600480360360608110156104a957600080fd5b5080359060208101359060400135611361565b604080519485526020850193909352838301919091526060830152519081900360800190f35b6009546007546040805163095ea7b360e01b81526001600160a01b03928316600482015260001960248201529051919092169163095ea7b39160448083019260209291908290030181600087803b15801561053c57600080fd5b505af1158015610550573d6000803e3d6000fd5b505050506040513d602081101561056657600080fd5b50516105b0576040805162461bcd60e51b81526020600482015260146024820152731d1bdad95b88185c1c1c9bdd994819985a5b195960621b604482015290519081900360640190fd5b565b6007546001600160a01b031681565b6001546001600160a01b031681565b60025481565b600581815481106105e357fe5b60009182526020909120600590910201805460018201546002830154600384015460049094015460ff841695506101009093046001600160a01b031693919290919086565b610630611427565b6001600160a01b031661064161096a565b6001600160a01b03161461068a576040805162461bcd60e51b81526020600482018190526024820152600080516020611d8e833981519152604482015290519081900360640190fd5b6003546276a70001421061069d57600080fd5b6007546001600160a01b031663f2fde38b6106b661096a565b6040518263ffffffff1660e01b815260040180826001600160a01b03166001600160a01b03168152602001915050600060405180830381600087803b1580156106fe57600080fd5b505af1158015610712573d6000803e3d6000fd5b50505050565b60006005828154811061072757fe5b906000526020600020906005020190504281600401541061078f576040805162461bcd60e51b815260206004820152601a60248201527f4f7074696f6e20686173206e6f74206578706972656420796574000000000000604482015290519081900360640190fd5b6000815460ff1660028111156107a157fe5b146107ea576040805162461bcd60e51b81526020600482015260146024820152734f7074696f6e206973206e6f742061637469766560601b604482015290519081900360640190fd5b805460ff191660029081178083556040805160c0810190915261086b9290918491839160ff169081111561081a57fe5b600281111561082557fe5b8152815461010090046001600160a01b0316602082015260018201546040820152600282015460608201526003820154608082015260049091015460a09091015261142b565b6003810154604080519182525183917f5f36a4a575e512eb69d6d28c3b0ff98cca7ba50ad5bf04e14094ad1d425e0d31919081900360200190a25050565b6108b1611427565b6001600160a01b03166108c261096a565b6001600160a01b03161461090b576040805162461bcd60e51b81526020600482018190526024820152600080516020611d8e833981519152604482015290519081900360640190fd5b600080546040516001600160a01b03909116907f8be0079c531659141344cd1fd0a4f28419497f9722a3daafe3b4186f6b6457e0908390a3600080546001600160a01b0319169055565b6006546001600160a01b031681565b60085481565b6000546001600160a01b031690565b610981611427565b6001600160a01b031661099261096a565b6001600160a01b0316146109db576040805162461bcd60e51b81526020600482018190526024820152600080516020611d8e833981519152604482015290519081900360640190fd5b6001600160a01b0381166109ee57600080fd5b600180546001600160a01b0319166001600160a01b0392909216919091179055565b600060058281548110610a1f57fe5b906000526020600020906005020190504281600401541015610a7d576040805162461bcd60e51b815260206004820152601260248201527113dc1d1a5bdb881a185cc8195e1c1a5c995960721b604482015290519081900360640190fd5b805461010090046001600160a01b03163314610ad3576040805162461bcd60e51b815260206004820152601060248201526f2bb937b7339036b9b39739b2b73232b960811b604482015290519081900360640190fd5b6000815460ff166002811115610ae557fe5b14610b25576040805162461bcd60e51b815260206004820152600b60248201526a57726f6e6720737461746560a81b604482015290519081900360640190fd5b805460ff19166001178082556040805160c08101909152600091610ba791908490829060ff166002811115610b5657fe5b6002811115610b6157fe5b8152815461010090046001600160a01b0316602082015260018201546040820152600282015460608201526003820154608082015260049091015460a090910152611510565b60408051828152905191925084917e84fe51c7cb34b132b7b6eb5d5a87a489f8d6d284758d00a0402c1bad9a0def9181900360200190a2505050565b6004546001600160a01b031681565b610bfa611427565b6001600160a01b0316610c0b61096a565b6001600160a01b031614610c54576040805162461bcd60e51b81526020600482018190526024820152600080516020611d8e833981519152604482015290519081900360640190fd5b605f811115610caa576040805162461bcd60e51b815260206004820152601960248201527f537072656164206c696d697420697320746f6f20736d616c6c00000000000000604482015290519081900360640190fd5b600855565b610cb7611427565b6001600160a01b0316610cc861096a565b6001600160a01b031614610d11576040805162461bcd60e51b81526020600482018190526024820152600080516020611d8e833981519152604482015290519081900360640190fd5b624f1a00811115610d69576040805162461bcd60e51b815260206004820152601a60248201527f4c6f636b757020706572696f6420697320746f6f206c61726765000000000000604482015290519081900360640190fd5b60075460408051630c771c3960e41b81526004810184905290516001600160a01b039092169163c771c3909160248082019260009290919082900301818387803b158015610db657600080fd5b505af1158015610dca573d6000803e3d6000fd5b5050505050565b6000806000610de1868686611361565b509193509150600090506305f5e100610e00868863ffffffff61169216565b81610e0757fe5b04905060008111610e55576040805162461bcd60e51b8152602060048201526013602482015272105b5bdd5b9d081a5cc81d1bdbc81cdb585b1b606a1b604482015290519081900360640190fd5b828210610ea0576040805162461bcd60e51b8152602060048201526014602482015273141c995b5a5d5b481a5cc81d1bdbc81cdb585b1b60621b604482015290519081900360640190fd5b62015180871015610eee576040805162461bcd60e51b815260206004820152601360248201527214195c9a5bd9081a5cc81d1bdbc81cda1bdc9d606a1b604482015290519081900360640190fd5b6224ea00871115610f3b576040805162461bcd60e51b8152602060048201526012602482015271506572696f6420697320746f6f206c6f6e6760701b604482015290519081900360640190fd5b823414610f7d576040805162461bcd60e51b815260206004820152600b60248201526a57726f6e672076616c756560a81b604482015290519081900360640190fd5b6000610f97610f92858563ffffffff6116f416565b611751565b600580546040805160c08101825260008082523360208301529181018b9052606081018c905260808101859052428d0160a0820152600180840185559184905280519383027f036b6384b5eca791c62761152d0c79bb0604c104a5fb6f4eb0703f3154bb3db0018054939a50949550939291839160ff199091169083600281111561101e57fe5b021790555060208281015182546001600160a01b0390911661010002610100600160a81b03199091161782556040808401516001840155606084015160028401556080840151600384015560a09093015160049092019190915581518581529081018690528151339288927f9acccf962da4ed9c3db3a1beedb70b0d4c3f6a69c170baca7198a74548b5ef4e929081900390910190a3611142600586815481106110c457fe5b600091825260209091206040805160c081019091526005909202018054829060ff1660028111156110f157fe5b60028111156110fc57fe5b8152815461010090046001600160a01b0316602082015260018201546040820152600282015460608201526003820154608082015260049091015460a090910152611ad6565b6001546040516001600160a01b039091169084156108fc029085906000818181858888f1935050505015801561117c573d6000803e3d6000fd5b50505050509392505050565b611190611427565b6001600160a01b03166111a161096a565b6001600160a01b0316146111ea576040805162461bcd60e51b81526020600482018190526024820152600080516020611d8e833981519152604482015290519081900360640190fd5b6103e881101561122b5760405162461bcd60e51b8152600401808060200182810382526021815260200180611dae6021913960400191505060405180910390fd5b600255565b8060005b818110156107125761125784848381811061124b57fe5b90506020020135610718565b600101611234565b611267611427565b6001600160a01b031661127861096a565b6001600160a01b0316146112c1576040805162461bcd60e51b81526020600482018190526024820152600080516020611d8e833981519152604482015290519081900360640190fd5b6001600160a01b0381166113065760405162461bcd60e51b8152600401808060200182810382526026815260200180611d476026913960400191505060405180910390fd5b600080546040516001600160a01b03808516939216917f8be0079c531659141344cd1fd0a4f28419497f9722a3daafe3b4186f6b6457e091a3600080546001600160a01b0319166001600160a01b0392909216919091179055565b6000806000806000600460009054906101000a90046001600160a01b03166001600160a01b03166350d25bcd6040518163ffffffff1660e01b815260040160206040518083038186803b1580156113b757600080fd5b505afa1580156113cb573d6000803e3d6000fd5b505050506040513d60208110156113e157600080fd5b505190506113ee87611b0f565b93506113fc87898884611b16565b9150611409878783611b97565b925061141b828463ffffffff611c3116565b94505093509350935093565b3390565b600754608082015160408051634029441560e11b81526004810192909252516001600160a01b0390921691638052882a9160248082019260009290919082900301818387803b15801561147d57600080fd5b505af1158015611491573d6000803e3d6000fd5b5050600754604084015160608501516001600160a01b039092169350636198e33992506114da916305f5e100916114ce919063ffffffff61169216565b9063ffffffff611c8b16565b6040518263ffffffff1660e01b815260040180828152602001915050600060405180830381600087803b158015610db657600080fd5b60048054604080516350d25bcd60e01b8152905160009384936001600160a01b0316926350d25bcd9281830192602092829003018186803b15801561155457600080fd5b505afa158015611568573d6000803e3d6000fd5b505050506040513d602081101561157e57600080fd5b505160408401519091508111156115dc576040805162461bcd60e51b815260206004820152601960248201527f43757272656e7420707269636520697320746f6f206869676800000000000000604482015290519081900360640190fd5b61160f6305f5e1006114ce85606001516116038588604001516116f490919063ffffffff16565b9063ffffffff61169216565b600754602085015160408051633419e74d60e21b81526001600160a01b03928316600482015260248101859052905193955091169163d0679d349160448082019260009290919082900301818387803b15801561166b57600080fd5b505af115801561167f573d6000803e3d6000fd5b5050505061168c8361142b565b50919050565b6000826116a1575060006116ee565b828202828482816116ae57fe5b04146116eb5760405162461bcd60e51b8152600401808060200182810382526021815260200180611d6d6021913960400191505060405180910390fd5b90505b92915050565b60008282111561174b576040805162461bcd60e51b815260206004820152601e60248201527f536166654d6174683a207375627472616374696f6e206f766572666c6f770000604482015290519081900360640190fd5b50900390565b60048054604080516350d25bcd60e01b8152905160009384936001600160a01b0316926350d25bcd9281830192602092829003018186803b15801561179557600080fd5b505afa1580156117a9573d6000803e3d6000fd5b505050506040513d60208110156117bf57600080fd5b50516040805160028082526060808301845293945090916020830190803683375050600654604080516315ab88c960e31b815290519394506001600160a01b039091169263ad5c464892506004808301926020929190829003018186803b15801561182957600080fd5b505afa15801561183d573d6000803e3d6000fd5b505050506040513d602081101561185357600080fd5b50518151829060009061186257fe5b6001600160a01b03928316602091820292909201015260095482519116908290600190811061188d57fe5b6001600160a01b0392831660209182029290920101526006546008546060929190911690637ff36ab59087906118d8906402540be400906114ce90611603858b63ffffffff61169216565b8530426040518663ffffffff1660e01b81526004018085815260200180602001846001600160a01b03166001600160a01b03168152602001838152602001828103825285818151815260200191508051906020019060200280838360005b8381101561194e578181015183820152602001611936565b50505050905001955050505050506000604051808303818588803b15801561197557600080fd5b505af1158015611989573d6000803e3d6000fd5b50505050506040513d6000823e601f3d908101601f1916820160405260208110156119b357600080fd5b81019080805160405193929190846401000000008211156119d357600080fd5b9083019060208201858111156119e857600080fd5b8251866020820283011164010000000082111715611a0557600080fd5b82525081516020918201928201910280838360005b83811015611a32578181015183820152602001611a1a565b50505050905001604052505050905080600182510381518110611a5157fe5b60200260200101519350600760009054906101000a90046001600160a01b03166001600160a01b031663ed922a06856040518263ffffffff1660e01b815260040180828152602001915050600060405180830381600087803b158015611ab657600080fd5b505af1158015611aca573d6000803e3d6000fd5b50505050505050919050565b600754604082015160608301516001600160a01b039092169163dd467064916114da916305f5e100916114ce919063ffffffff61169216565b6064900490565b600080600454600160a01b900460ff166001811115611b3157fe5b1415611b6d57611b666305f5e1006114ce846114ce87611603600254611603611b598d611cf2565b8e9063ffffffff61169216565b9050611b8f565b611b666305f5e1006114ce856114ce86611603600254611603611b598d611cf2565b949350505050565b60008183118015611bbf57506000600454600160a01b900460ff166001811115611bbd57fe5b145b15611be357611bdc826114ce86611603878463ffffffff6116f416565b9050611c2a565b8183108015611c0957506001600454600160a01b900460ff166001811115611c0757fe5b145b15611c2657611bdc826114ce86611603838863ffffffff6116f416565b5060005b9392505050565b6000828201838110156116eb576040805162461bcd60e51b815260206004820152601b60248201527f536166654d6174683a206164646974696f6e206f766572666c6f770000000000604482015290519081900360640190fd5b6000808211611ce1576040805162461bcd60e51b815260206004820152601a60248201527f536166654d6174683a206469766973696f6e206279207a65726f000000000000604482015290519081900360640190fd5b818381611cea57fe5b049392505050565b806000611d0b60026114ce84600163ffffffff611c3116565b90505b8181101561168c5780611d3c60026114ce83611d30888263ffffffff611c8b16565b9063ffffffff611c3116565b9092509050611d0e56fe4f776e61626c653a206e6577206f776e657220697320746865207a65726f2061646472657373536166654d6174683a206d756c7469706c69636174696f6e206f766572666c6f774f776e61626c653a2063616c6c6572206973206e6f7420746865206f776e6572496d706c696564566f6c52617465206c696d697420697320746f6f20736d616c6ca264697066735822122011f28a8e5ad5bb3381e2c2ea86028bb8306764ed17a32639409e94c127341ddf64736f6c634300060800336080604052621275006007553480156200001857600080fd5b506040516200226a3803806200226a833981810160405260208110156200003e57600080fd5b505160408051808201825260118152702434bb32902220a4902628102a37b5b2b760791b60208281019190915282518084019093526008835267777269746544414960c01b908301529060006200009d6001600160e01b036200014916565b600080546001600160a01b0319166001600160a01b0383169081178255604051929350917f8be0079c531659141344cd1fd0a4f28419497f9722a3daafe3b4186f6b6457e0908290a3508151620000fc9060049060208501906200014e565b508051620001129060059060208401906200014e565b50506006805460ff1916601217905550600b80546001600160a01b039092166001600160a01b0319909216919091179055620001f0565b335b90565b828054600181600116156101000203166002900490600052602060002090601f016020900481019282601f106200019157805160ff1916838001178555620001c1565b82800160010185558215620001c1579182015b82811115620001c1578251825591602001919060010190620001a4565b50620001cf929150620001d3565b5090565b6200014b91905b80821115620001cf5760008155600101620001da565b61206a80620002006000396000f3fe608060405234801561001057600080fd5b50600436106101cf5760003560e01c80638da5cb5b11610104578063d0679d34116100a2578063ed922a0611610071578063ed922a0614610539578063ee947a7c14610556578063f2fde38b1461055e578063fc0c546a14610584576101cf565b8063d0679d341461049f578063dd467064146104cb578063dd62ed3e146104e8578063e8c3c54f14610516576101cf565b8063a9059cbb116100de578063a9059cbb14610446578063ab2f0e5114610472578063ad7a672f1461047a578063c771c39014610482576101cf565b80638da5cb5b146103ee57806395d89b4114610412578063a457c2d71461041a576101cf565b8063441a3e701161017157806370a082311161014b57806370a082311461039b578063715018a6146103c1578063797be55e146103c95780638052882a146103d1576101cf565b8063441a3e70146103515780636198e339146103745780636ab28bc814610393576101cf565b806321e5e2c4116101ad57806321e5e2c4146102ab57806323b872dd146102d1578063313ce567146103075780633950935114610325576101cf565b806306fdde03146101d4578063095ea7b31461025157806318160ddd14610291575b600080fd5b6101dc61058c565b6040805160208082528351818301528351919283929083019185019080838360005b838110156102165781810151838201526020016101fe565b50505050905090810190601f1680156102435780820380516001836020036101000a031916815260200191505b509250505060405180910390f35b61027d6004803603604081101561026757600080fd5b506001600160a01b038135169060200135610622565b604080519115158252519081900360200190f35b610299610640565b60408051918252519081900360200190f35b610299600480360360208110156102c157600080fd5b50356001600160a01b0316610646565b61027d600480360360608110156102e757600080fd5b506001600160a01b0381358116916020810135909116906040013561069b565b61030f610728565b6040805160ff9092168252519081900360200190f35b61027d6004803603604081101561033b57600080fd5b506001600160a01b038135169060200135610731565b6102996004803603604081101561036757600080fd5b5080359060200135610785565b6103916004803603602081101561038a57600080fd5b5035610a76565b005b610299610b32565b610299600480360360208110156103b157600080fd5b50356001600160a01b0316610b38565b610391610b53565b610299610bff565b610391600480360360208110156103e757600080fd5b5035610c05565b6103f6610cc1565b604080516001600160a01b039092168252519081900360200190f35b6101dc610cd0565b61027d6004803603604081101561043057600080fd5b506001600160a01b038135169060200135610d31565b61027d6004803603604081101561045c57600080fd5b506001600160a01b038135169060200135610d9f565b610299610db3565b610299610dd4565b6103916004803603602081101561049857600080fd5b5035610e63565b610391600480360360408110156104b557600080fd5b506001600160a01b038135169060200135610f22565b610391600480360360208110156104e157600080fd5b5035611099565b610299600480360360408110156104fe57600080fd5b506001600160a01b0381358116916020013516611171565b6102996004803603604081101561052c57600080fd5b508035906020013561119c565b6103916004803603602081101561054f57600080fd5b50356113bd565b6102996114f9565b6103916004803603602081101561057457600080fd5b50356001600160a01b03166114ff565b6103f6611601565b60048054604080516020601f60026000196101006001881615020190951694909404938401819004810282018101909252828152606093909290918301828280156106185780601f106105ed57610100808354040283529160200191610618565b820191906000526020600020905b8154815290600101906020018083116105fb57829003601f168201915b5050505050905090565b600061063661062f611610565b8484611614565b5060015b92915050565b60035490565b600080610651610640565b90508015610690576106898161067d61066986610b38565b610671610dd4565b9063ffffffff61170016565b9063ffffffff61176016565b9150610695565b600091505b50919050565b60006106a88484846117c7565b61071e846106b4611610565b61071985604051806060016040528060288152602001611f5e602891396001600160a01b038a166000908152600260205260408120906106f2611610565b6001600160a01b03168152602081019190915260400160002054919063ffffffff61193016565b611614565b5060019392505050565b60065460ff1690565b600061063661073e611610565b84610719856002600061074f611610565b6001600160a01b03908116825260208083019390935260409182016000908120918c16815292529020549063ffffffff6119c716565b600754336000908152600a6020526040812054909142916107ab9163ffffffff6119c716565b11156107fe576040805162461bcd60e51b815260206004820152601d60248201527f506f6f6c3a205769746864726177616c206973206c6f636b6564207570000000604482015290519081900360640190fd5b610806610db3565b8311156108445760405162461bcd60e51b8152600401808060200182810382526071815260200180611eed6071913960800191505060405180910390fd5b61086761084f610dd4565b61067d61085a610640565b869063ffffffff61170016565b9050818111156108be576040805162461bcd60e51b815260206004820152601d60248201527f506f6f6c3a204275726e206c696d697420697320746f6f20736d616c6c000000604482015290519081900360640190fd5b6108c733610b38565b81111561091b576040805162461bcd60e51b815260206004820152601960248201527f506f6f6c3a20416d6f756e7420697320746f6f206c6172676500000000000000604482015290519081900360640190fd5b6000811161096c576040805162461bcd60e51b8152602060048201526019602482015278141bdbdb0e88105b5bdd5b9d081a5cc81d1bdbc81cdb585b1b603a1b604482015290519081900360640190fd5b6109763382611a21565b6040805184815260208101839052815133927ff279e6a1f5e320cca91135676d9cb6e44ca8a08c0b88342bcdb1144f6511b568928290030190a2600b546040805163a9059cbb60e01b81523360048201526024810186905290516001600160a01b039092169163a9059cbb916044808201926020929091908290030181600087803b158015610a0457600080fd5b505af1158015610a18573d6000803e3d6000fd5b505050506040513d6020811015610a2e57600080fd5b505161063a576040805162461bcd60e51b8152602060048201526012602482015271496e73756666696369656e742066756e647360701b604482015290519081900360640190fd5b610a7e611610565b6001600160a01b0316610a8f610cc1565b6001600160a01b031614610ad8576040805162461bcd60e51b81526020600482018190526024820152600080516020611f86833981519152604482015290519081900360640190fd5b806008541015610b195760405162461bcd60e51b8152600401808060200182810382526071815260200180611eed6071913960800191505060405180910390fd5b600854610b2c908263ffffffff611b2916565b60085550565b60085481565b6001600160a01b031660009081526001602052604090205490565b610b5b611610565b6001600160a01b0316610b6c610cc1565b6001600160a01b031614610bb5576040805162461bcd60e51b81526020600482018190526024820152600080516020611f86833981519152604482015290519081900360640190fd5b600080546040516001600160a01b03909116907f8be0079c531659141344cd1fd0a4f28419497f9722a3daafe3b4186f6b6457e0908390a3600080546001600160a01b0319169055565b60095481565b610c0d611610565b6001600160a01b0316610c1e610cc1565b6001600160a01b031614610c67576040805162461bcd60e51b81526020600482018190526024820152600080516020611f86833981519152604482015290519081900360640190fd5b806009541015610ca85760405162461bcd60e51b8152600401808060200182810382526073815260200180611de36073913960800191505060405180910390fd5b600954610cbb908263ffffffff611b2916565b60095550565b6000546001600160a01b031690565b60058054604080516020601f60026000196101006001881615020190951694909404938401819004810282018101909252828152606093909290918301828280156106185780601f106105ed57610100808354040283529160200191610618565b6000610636610d3e611610565b84610719856040518060600160405280602581526020016120106025913960026000610d68611610565b6001600160a01b03908116825260208083019390935260409182016000908120918d1681529252902054919063ffffffff61193016565b6000610636610dac611610565b84846117c7565b6000610dcf600854610dc3610dd4565b9063ffffffff611b2916565b905090565b600954600b54604080516370a0823160e01b81523060048201529051600093610dcf9390926001600160a01b03909116916370a0823191602480820192602092909190829003018186803b158015610e2b57600080fd5b505afa158015610e3f573d6000803e3d6000fd5b505050506040513d6020811015610e5557600080fd5b50519063ffffffff611b2916565b610e6b611610565b6001600160a01b0316610e7c610cc1565b6001600160a01b031614610ec5576040805162461bcd60e51b81526020600482018190526024820152600080516020611f86833981519152604482015290519081900360640190fd5b624f1a00811115610f1d576040805162461bcd60e51b815260206004820152601a60248201527f4c6f636b757020706572696f6420697320746f6f206c61726765000000000000604482015290519081900360640190fd5b600755565b610f2a611610565b6001600160a01b0316610f3b610cc1565b6001600160a01b031614610f84576040805162461bcd60e51b81526020600482018190526024820152600080516020611f86833981519152604482015290519081900360640190fd5b6001600160a01b038216610f9757600080fd5b806008541015610fd85760405162461bcd60e51b8152600401808060200182810382526073815260200180611de36073913960800191505060405180910390fd5b600b546040805163a9059cbb60e01b81526001600160a01b038581166004830152602482018590529151919092169163a9059cbb9160448083019260209291908290030181600087803b15801561102e57600080fd5b505af1158015611042573d6000803e3d6000fd5b505050506040513d602081101561105857600080fd5b50516110955760405162461bcd60e51b8152600401808060200182810382526050815260200180611e566050913960600191505060405180910390fd5b5050565b6110a1611610565b6001600160a01b03166110b2610cc1565b6001600160a01b0316146110fb576040805162461bcd60e51b81526020600482018190526024820152600080516020611f86833981519152604482015290519081900360640190fd5b6008611122611108610dd4565b61067d600a610671866008546119c790919063ffffffff16565b1061115e5760405162461bcd60e51b815260040180806020018281038252604b815260200180611d2e604b913960600191505060405180910390fd5b600854610b2c908263ffffffff6119c716565b6001600160a01b03918216600090815260026020908152604080832093909416825291909152205490565b336000908152600a60205260408120429055806111b7610640565b905060006111c3610dd4565b90506000821180156111d55750600081115b156111f5576111ee8161067d878563ffffffff61170016565b925061120a565b611207856103e863ffffffff61170016565b92505b8383101561125f576040805162461bcd60e51b815260206004820152601d60248201527f506f6f6c3a204d696e74206c696d697420697320746f6f206c61726765000000604482015290519081900360640190fd5b600083116112b0576040805162461bcd60e51b8152602060048201526019602482015278141bdbdb0e88105b5bdd5b9d081a5cc81d1bdbc81cdb585b1b603a1b604482015290519081900360640190fd5b6112ba3384611b86565b6040805186815260208101859052815133927f4089141ea5e4c16575f5ebf65f1786497ea07c175846fc7745ef8d8986a4ff65928290030190a2600b54604080516323b872dd60e01b81523360048201523060248201526044810188905290516001600160a01b03909216916323b872dd916064808201926020929091908290030181600087803b15801561134e57600080fd5b505af1158015611362573d6000803e3d6000fd5b505050506040513d602081101561137857600080fd5b50516113b55760405162461bcd60e51b8152600401808060200182810382526050815260200180611e566050913960600191505060405180910390fd5b505092915050565b6113c5611610565b6001600160a01b03166113d6610cc1565b6001600160a01b03161461141f576040805162461bcd60e51b81526020600482018190526024820152600080516020611f86833981519152604482015290519081900360640190fd5b600954611432908263ffffffff6119c716565b600955600b54604080516323b872dd60e01b81523360048201523060248201526044810184905290516001600160a01b03909216916323b872dd916064808201926020929091908290030181600087803b15801561148f57600080fd5b505af11580156114a3573d6000803e3d6000fd5b505050506040513d60208110156114b957600080fd5b50516114f65760405162461bcd60e51b8152600401808060200182810382526050815260200180611e566050913960600191505060405180910390fd5b50565b60075481565b611507611610565b6001600160a01b0316611518610cc1565b6001600160a01b031614611561576040805162461bcd60e51b81526020600482018190526024820152600080516020611f86833981519152604482015290519081900360640190fd5b6001600160a01b0381166115a65760405162461bcd60e51b8152600401808060200182810382526026815260200180611d9b6026913960400191505060405180910390fd5b600080546040516001600160a01b03808516939216917f8be0079c531659141344cd1fd0a4f28419497f9722a3daafe3b4186f6b6457e091a3600080546001600160a01b0319166001600160a01b0392909216919091179055565b600b546001600160a01b031681565b3390565b6001600160a01b0383166116595760405162461bcd60e51b8152600401808060200182810382526024815260200180611fec6024913960400191505060405180910390fd5b6001600160a01b03821661169e5760405162461bcd60e51b8152600401808060200182810382526022815260200180611dc16022913960400191505060405180910390fd5b6001600160a01b03808416600081815260026020908152604080832094871680845294825291829020859055815185815291517f8c5be1e5ebec7d5bd14f71427d1e84f3dd0314c0f7b2291e5b200ac8c7c3b9259281900390910190a3505050565b60008261170f5750600061063a565b8282028284828161171c57fe5b04146117595760405162461bcd60e51b8152600401808060200182810382526021815260200180611ecc6021913960400191505060405180910390fd5b9392505050565b60008082116117b6576040805162461bcd60e51b815260206004820152601a60248201527f536166654d6174683a206469766973696f6e206279207a65726f000000000000604482015290519081900360640190fd5b8183816117bf57fe5b049392505050565b6001600160a01b03831661180c5760405162461bcd60e51b8152600401808060200182810382526025815260200180611fc76025913960400191505060405180910390fd5b6001600160a01b0382166118515760405162461bcd60e51b8152600401808060200182810382526023815260200180611d0b6023913960400191505060405180910390fd5b61185c838383611c84565b61189f81604051806060016040528060268152602001611ea6602691396001600160a01b038616600090815260016020526040902054919063ffffffff61193016565b6001600160a01b0380851660009081526001602052604080822093909355908416815220546118d4908263ffffffff6119c716565b6001600160a01b0380841660008181526001602090815260409182902094909455805185815290519193928716927fddf252ad1be2c89b69c2b068fc378daa952ba7f163c4a11628f55a4df523b3ef92918290030190a3505050565b600081848411156119bf5760405162461bcd60e51b81526004018080602001828103825283818151815260200191508051906020019080838360005b8381101561198457818101518382015260200161196c565b50505050905090810190601f1680156119b15780820380516001836020036101000a031916815260200191505b509250505060405180910390fd5b505050900390565b600082820183811015611759576040805162461bcd60e51b815260206004820152601b60248201527f536166654d6174683a206164646974696f6e206f766572666c6f770000000000604482015290519081900360640190fd5b6001600160a01b038216611a665760405162461bcd60e51b8152600401808060200182810382526021815260200180611fa66021913960400191505060405180910390fd5b611a7282600083611c84565b611ab581604051806060016040528060228152602001611d79602291396001600160a01b038516600090815260016020526040902054919063ffffffff61193016565b6001600160a01b038316600090815260016020526040902055600354611ae1908263ffffffff611b2916565b6003556040805182815290516000916001600160a01b038516917fddf252ad1be2c89b69c2b068fc378daa952ba7f163c4a11628f55a4df523b3ef9181900360200190a35050565b600082821115611b80576040805162461bcd60e51b815260206004820152601e60248201527f536166654d6174683a207375627472616374696f6e206f766572666c6f770000604482015290519081900360640190fd5b50900390565b6001600160a01b038216611be1576040805162461bcd60e51b815260206004820152601f60248201527f45524332303a206d696e7420746f20746865207a65726f206164647265737300604482015290519081900360640190fd5b611bed60008383611c84565b600354611c00908263ffffffff6119c716565b6003556001600160a01b038216600090815260016020526040902054611c2c908263ffffffff6119c716565b6001600160a01b03831660008181526001602090815260408083209490945583518581529351929391927fddf252ad1be2c89b69c2b068fc378daa952ba7f163c4a11628f55a4df523b3ef9281900390910190a35050565b6007546001600160a01b0384166000908152600a60205260409020544291611cb2919063ffffffff6119c716565b1115611d05576040805162461bcd60e51b815260206004820152601d60248201527f506f6f6c3a205769746864726177616c206973206c6f636b6564207570000000604482015290519081900360640190fd5b50505056fe45524332303a207472616e7366657220746f20746865207a65726f2061646472657373506f6f6c204572726f723a204e6f7420656e6f7567682066756e6473206f6e2074686520706f6f6c20636f6e74726163742e20506c65617365206c6f7765722074686520616d6f756e742e45524332303a206275726e20616d6f756e7420657863656564732062616c616e63654f776e61626c653a206e6577206f776e657220697320746865207a65726f206164647265737345524332303a20617070726f766520746f20746865207a65726f2061646472657373506f6f6c204572726f723a20596f752061726520747279696e6720746f20756e6c6f636b206d6f7265207072656d69756d73207468616e2068617665206265656e206c6f636b656420666f722074686520636f6e74726163742e20506c65617365206c6f7765722074686520616d6f756e742e546f6b656e207472616e73666572206572726f723a20506c65617365206c6f7765722074686520616d6f756e74206f66207072656d69756d73207468617420796f752077616e7420746f2073656e642e45524332303a207472616e7366657220616d6f756e7420657863656564732062616c616e6365536166654d6174683a206d756c7469706c69636174696f6e206f766572666c6f77506f6f6c204572726f723a20596f752061726520747279696e6720746f20756e6c6f636b206d6f72652066756e6473207468616e2068617665206265656e206c6f636b656420666f7220796f757220636f6e74726163742e20506c65617365206c6f7765722074686520616d6f756e742e45524332303a207472616e7366657220616d6f756e74206578636565647320616c6c6f77616e63654f776e61626c653a2063616c6c6572206973206e6f7420746865206f776e657245524332303a206275726e2066726f6d20746865207a65726f206164647265737345524332303a207472616e736665722066726f6d20746865207a65726f206164647265737345524332303a20617070726f76652066726f6d20746865207a65726f206164647265737345524332303a2064656372656173656420616c6c6f77616e63652062656c6f77207a65726fa26469706673582212208a2497a2b9b06b59e31f7e30e828615cb8c0cc284f6e73b87d75846037b985d864736f6c63430006080033",
  "immutableReferences": {},
  "source": "/**\n * SPDX-License-Identifier: GPL-3.0-or-later\n * Hive\n * Copyright (C) 2020 Hive Protocol\n *\n * This program is free software: you can redistribute it and/or modify\n * it under the terms of the GNU General Public License as published by\n * the Free Software Foundation, either version 3 of the License, or\n * (at your option) any later version.\n *\n * This program is distributed in the hope that it will be useful,\n * but WITHOUT ANY WARRANTY; without even the implied warranty of\n * MERCHANTABILITY or FITNESS FOR A PARTICULAR PURPOSE.  See the\n * GNU General Public License for more details.\n *\n * You should have received a copy of the GNU General Public License\n * along with this program.  If not, see <http://www.gnu.org/licenses/>.\n */\n\npragma solidity 0.6.8;\n\nimport \"./HiveOptions.sol\";\n\n\n/**\n * @author 0mllwntrmt3\n * @title Hive OETH Put Options\n * @notice OETH Put Options Contract\n */\ncontract HivePutOptions is HiveOptions {\n    IUniswapV2Router01 public uniswapRouter;\n    HiveERCPool public pool;\n    uint256 public maxSpread = 95;\n    IERC20 internal token;\n\n    /**\n     * @param _token The address of stable ERC20 token contract\n     * @param _priceProvider The address of ChainLink OETH/USD price feed contract\n     * @param _uniswapRouter The address of Uniswap Router contract\n     */\n    constructor(\n        IERC20 _token,\n        AggregatorInterface _priceProvider,\n        IUniswapV2Router01 _uniswapRouter\n    )\n        public\n        HiveOptions(_priceProvider, HiveOptions.OptionType.Put)\n    {\n        token = _token;\n        uniswapRouter = _uniswapRouter;\n        pool = new HiveERCPool(token);\n        approve();\n    }\n\n    /**\n     * @notice Can be used to update the contract in critical situations\n     *         in the first 90 days after deployment\n     */\n    function transferPoolOwnership() external onlyOwner {\n        require(now < contractCreationTimestamp + 90 days);\n        pool.transferOwnership(owner());\n    }\n\n    /**\n     * @notice Used for adjusting the spread limit\n     * @param value New maxSpread value\n     */\n    function setMaxSpread(uint256 value) external onlyOwner {\n        require(value <= 95, \"Spread limit is too small\");\n        maxSpread = value;\n    }\n\n    /**\n     * @notice Used for changing the lockup period\n     * @param value New period value\n     */\n    function setLockupPeriod(uint256 value) external onlyOwner {\n        require(value <= 60 days, \"Lockup period is too large\");\n        pool.setLockupPeriod(value);\n    }\n\n    /**\n     * @notice Allows the ERC pool contract to receive and send tokens\n     */\n    function approve() public {\n        require(\n            token.approve(address(pool), uint256(-1)),\n            \"token approve failed\"\n        );\n    }\n\n    /**\n     * @notice Sends premiums to the ERC liquidity pool contract\n     */\n    function sendPremium(uint256 amount) internal override returns (uint premium) {\n        uint currentPrice = uint(priceProvider.latestAnswer());\n        address[] memory path = new address[](2);\n        path[0] = uniswapRouter.WETH();\n        path[1] = address(token);\n        uint[] memory amounts = uniswapRouter.swapExactETHForTokens {\n            value: amount\n        }(\n            amount.mul(currentPrice).mul(maxSpread).div(1e10),\n            path,\n            address(this),\n            now\n        );\n        premium = amounts[amounts.length - 1];\n        pool.sendPremium(premium);\n    }\n\n    /**\n     * @notice Locks the amount required for an option\n     * @param option A specific option contract\n     */\n    function lockFunds(Option memory option) internal override {\n        pool.lock(option.amount.mul(option.strike).div(PRICE_DECIMALS));\n    }\n\n    /**\n     * @notice Sends profits in DAI from the ERC pool to a put option holder's address\n     * @param option A specific option contract\n     */\n    function payProfit(Option memory option) internal override returns (uint profit) {\n        uint currentPrice = uint(priceProvider.latestAnswer());\n        require(option.strike >= currentPrice, \"Current price is too high\");\n        profit = option.strike.sub(currentPrice).mul(option.amount).div(PRICE_DECIMALS);\n        pool.send(option.holder, profit);\n        unlockFunds(option);\n    }\n\n    /**\n     * @notice Unlocks the amount that was locked in a put option contract\n     * @param option A specific option contract\n     */\n    function unlockFunds(Option memory option) internal override {\n        pool.unlockPremium(option.premium);\n        pool.unlock(option.amount.mul(option.strike).div(PRICE_DECIMALS));\n    }\n}\n",
  "sourcePath": "contracts/HivePutOptions.sol",
  "compiler": {
    "name": "solc",
    "version": "0.6.8+commit.0bbfe453.Emscripten.clang"
  },
  "schemaVersion": "3.3.4",
  "updatedAt": "2021-04-16T01:01:58.956Z",
  "devdoc": {
    "author": "0mllwntrmt3",
    "methods": {
      "constructor": {
        "params": {
          "_priceProvider": "The address of ChainLink OETH/USD price feed contract",
          "_token": "The address of stable ERC20 token contract",
          "_uniswapRouter": "The address of Uniswap Router contract"
        }
      },
      "create(uint256,uint256,uint256)": {
        "params": {
          "amount": "Option amount",
          "period": "Option period in seconds (1 days <= period <= 4 weeks)",
          "strike": "Strike price of the option"
        },
        "returns": {
          "optionID": "Created option's ID"
        }
      },
      "exercise(uint256)": {
        "params": {
          "optionID": "ID of your option"
        }
      },
      "fees(uint256,uint256,uint256)": {
        "params": {
          "amount": "Option amount",
          "period": "Option period in seconds (1 days <= period <= 4 weeks)",
          "strike": "Strike price of the option"
        },
        "returns": {
          "periodFee": "Option period fee amount",
          "settlementFee": "Amount to be distributed to the Hive token holders",
          "strikeFee": "Amount that covers the price difference in the ITM options",
          "total": "Total price to be paid"
        }
      },
      "owner()": {
        "details": "Returns the address of the current owner."
      },
      "renounceOwnership()": {
        "details": "Leaves the contract without owner. It will not be possible to call `onlyOwner` functions anymore. Can only be called by the current owner.     * NOTE: Renouncing ownership will leave the contract without an owner, thereby removing any functionality that is only available to the owner."
      },
      "setImpliedVolRate(uint256)": {
        "params": {
          "value": "New IVRate value"
        }
      },
      "setLockupPeriod(uint256)": {
        "params": {
          "value": "New period value"
        }
      },
      "setMaxSpread(uint256)": {
        "params": {
          "value": "New maxSpread value"
        }
      },
      "setSettlementFeeRecipient(address)": {
        "params": {
          "recipient": "New settlementFee recipient address"
        }
      },
      "transferOwnership(address)": {
        "details": "Transfers ownership of the contract to a new account (`newOwner`). Can only be called by the current owner."
      },
      "unlock(uint256)": {
        "params": {
          "optionID": "ID of the option"
        }
      },
      "unlockAll(uint256[])": {
        "params": {
          "optionIDs": "array of options"
        }
      }
    },
    "title": "Hive OETH Put Options"
  },
  "userdoc": {
    "methods": {
      "approve()": {
        "notice": "Allows the ERC pool contract to receive and send tokens"
      },
      "create(uint256,uint256,uint256)": {
        "notice": "Creates a new option"
      },
      "exercise(uint256)": {
        "notice": "Exercises an active option"
      },
      "fees(uint256,uint256,uint256)": {
        "notice": "Used for getting the actual options prices"
      },
      "setImpliedVolRate(uint256)": {
        "notice": "Used for adjusting the options prices while balancing asset's implied volatility rate"
      },
      "setLockupPeriod(uint256)": {
        "notice": "Used for changing the lockup period"
      },
      "setMaxSpread(uint256)": {
        "notice": "Used for adjusting the spread limit"
      },
      "setSettlementFeeRecipient(address)": {
        "notice": "Used for changing settlementFeeRecipient"
      },
      "transferPoolOwnership()": {
        "notice": "Can be used to update the contract in critical situations        in the first 90 days after deployment"
      },
      "unlock(uint256)": {
        "notice": "Unlock funds locked in the expired options"
      },
      "unlockAll(uint256[])": {
        "notice": "Unlocks an array of options"
      }
    },
    "notice": "OETH Put Options Contract"
  }
}